{
  "_format": "hh-sol-artifact-1",
  "contractName": "Shop",
  "sourceName": "contracts/Shop.sol",
  "abi": [
    {
      "inputs": [],
      "stateMutability": "nonpayable",
      "type": "constructor"
    },
    {
      "inputs": [
        {
          "internalType": "uint256",
          "name": "_id",
          "type": "uint256"
        },
        {
          "internalType": "uint256",
          "name": "_quiantity",
          "type": "uint256"
        }
      ],
      "name": "addItem",
      "outputs": [],
      "stateMutability": "nonpayable",
      "type": "function"
    },
    {
      "inputs": [
        {
          "internalType": "uint256",
          "name": "_id",
          "type": "uint256"
        }
      ],
      "name": "buyItem",
      "outputs": [],
      "stateMutability": "nonpayable",
      "type": "function"
    },
    {
      "inputs": [
        {
          "internalType": "address",
          "name": "",
          "type": "address"
        },
        {
          "internalType": "uint256",
          "name": "",
          "type": "uint256"
        }
      ],
      "name": "clientPurchases",
      "outputs": [
        {
          "internalType": "uint256",
          "name": "quantity",
          "type": "uint256"
        },
        {
          "internalType": "uint256",
          "name": "blocktime",
          "type": "uint256"
        }
      ],
      "stateMutability": "view",
      "type": "function"
    },
    {
      "inputs": [
        {
          "internalType": "uint256",
          "name": "",
          "type": "uint256"
        }
      ],
      "name": "clients",
      "outputs": [
        {
          "internalType": "address",
          "name": "",
          "type": "address"
        }
      ],
      "stateMutability": "view",
      "type": "function"
    },
    {
      "inputs": [
        {
          "internalType": "uint256",
          "name": "",
          "type": "uint256"
        }
      ],
      "name": "items",
      "outputs": [
        {
          "internalType": "uint256",
          "name": "",
          "type": "uint256"
        }
      ],
      "stateMutability": "view",
      "type": "function"
    },
    {
      "inputs": [
        {
          "internalType": "address",
          "name": "_client",
          "type": "address"
        },
        {
          "internalType": "uint256",
          "name": "_id",
          "type": "uint256"
        }
      ],
      "name": "listClientItems",
      "outputs": [
        {
          "internalType": "uint256",
          "name": "",
          "type": "uint256"
        }
      ],
      "stateMutability": "view",
      "type": "function"
    },
    {
      "inputs": [],
      "name": "listClients",
      "outputs": [
        {
          "internalType": "address[]",
          "name": "",
          "type": "address[]"
        }
      ],
      "stateMutability": "view",
      "type": "function"
    },
    {
      "inputs": [
        {
          "internalType": "uint256",
          "name": "_id",
          "type": "uint256"
        }
      ],
      "name": "listItems",
      "outputs": [
        {
          "internalType": "uint256",
          "name": "",
          "type": "uint256"
        }
      ],
      "stateMutability": "view",
      "type": "function"
    },
    {
      "inputs": [
        {
          "internalType": "uint256",
          "name": "_id",
          "type": "uint256"
        }
      ],
      "name": "returnItem",
      "outputs": [],
      "stateMutability": "nonpayable",
      "type": "function"
    }
  ],
  "bytecode": "0x6080604052600060045534801561001557600080fd5b50336000806101000a81548173ffffffffffffffffffffffffffffffffffffffff021916908373ffffffffffffffffffffffffffffffffffffffff160217905550611023806100656000396000f3fe608060405234801561001057600080fd5b50600436106100935760003560e01c8063a4ddcd3f11610066578063a4ddcd3f14610131578063bfb231d214610161578063e20ee26914610191578063e7fb74c7146101af578063f88af21d146101cb57610093565b8063223ed1dd146100985780632ad2ba7c146100b45780633e909fc5146100e5578063a212523214610115575b600080fd5b6100b260048036038101906100ad91906109d0565b6101fb565b005b6100ce60048036038101906100c99190610a5b565b610415565b6040516100dc929190610aaa565b60405180910390f35b6100ff60048036038101906100fa91906109d0565b610446565b60405161010c9190610ad3565b60405180910390f35b61012f600480360381019061012a9190610aee565b610463565b005b61014b60048036038101906101469190610a5b565b61051f565b6040516101589190610ad3565b60405180910390f35b61017b600480360381019061017691906109d0565b61057d565b6040516101889190610ad3565b60405180910390f35b610199610595565b6040516101a69190610bec565b60405180910390f35b6101c960048036038101906101c491906109d0565b61068f565b005b6101e560048036038101906101e091906109d0565b610962565b6040516101f29190610c1d565b60405180910390f35b60008054906101000a900473ffffffffffffffffffffffffffffffffffffffff1673ffffffffffffffffffffffffffffffffffffffff163373ffffffffffffffffffffffffffffffffffffffff1603610289576040517f08c379a000000000000000000000000000000000000000000000000000000000815260040161028090610c95565b60405180910390fd5b6000600260003373ffffffffffffffffffffffffffffffffffffffff1673ffffffffffffffffffffffffffffffffffffffff1681526020019081526020016000206000838152602001908152602001600020600001541161031f576040517f08c379a000000000000000000000000000000000000000000000000000000000815260040161031690610d01565b60405180910390fd5b6064600260003373ffffffffffffffffffffffffffffffffffffffff1673ffffffffffffffffffffffffffffffffffffffff168152602001908152602001600020600083815260200190815260200160002060010154436103809190610d50565b1161041257600260003373ffffffffffffffffffffffffffffffffffffffff1673ffffffffffffffffffffffffffffffffffffffff16815260200190815260200160002060008281526020019081526020016000206000808201600090556001820160009055505060016000828152602001908152602001600020600081548092919061040c90610d84565b91905055505b50565b6002602052816000526040600020602052806000526040600020600091509150508060000154908060010154905082565b600060016000838152602001908152602001600020549050919050565b60008054906101000a900473ffffffffffffffffffffffffffffffffffffffff1673ffffffffffffffffffffffffffffffffffffffff163373ffffffffffffffffffffffffffffffffffffffff16146104f1576040517f08c379a00000000000000000000000000000000000000000000000000000000081526004016104e890610e18565b60405180910390fd5b806001600084815260200190815260200160002060008282546105149190610e38565b925050819055505050565b6000600260008473ffffffffffffffffffffffffffffffffffffffff1673ffffffffffffffffffffffffffffffffffffffff168152602001908152602001600020600083815260200190815260200160002060000154905092915050565b60016020528060005260406000206000915090505481565b6060600060045467ffffffffffffffff8111156105b5576105b4610e8e565b5b6040519080825280602002602001820160405280156105e35781602001602082028036833780820191505090505b50905060005b600454811015610687576003600082815260200190815260200160002060009054906101000a900473ffffffffffffffffffffffffffffffffffffffff1682828151811061063a57610639610ebd565b5b602002602001019073ffffffffffffffffffffffffffffffffffffffff16908173ffffffffffffffffffffffffffffffffffffffff1681525050808061067f90610d84565b9150506105e9565b508091505090565b60008054906101000a900473ffffffffffffffffffffffffffffffffffffffff1673ffffffffffffffffffffffffffffffffffffffff163373ffffffffffffffffffffffffffffffffffffffff160361071d576040517f08c379a000000000000000000000000000000000000000000000000000000000815260040161071490610c95565b60405180910390fd5b6000600260003373ffffffffffffffffffffffffffffffffffffffff1673ffffffffffffffffffffffffffffffffffffffff168152602001908152602001600020600083815260200190815260200160002060000154146107b3576040517f08c379a00000000000000000000000000000000000000000000000000000000081526004016107aa90610f38565b60405180910390fd5b6000600160008381526020019081526020016000205411610809576040517f08c379a000000000000000000000000000000000000000000000000000000000815260040161080090610fa4565b60405180910390fd5b600260003373ffffffffffffffffffffffffffffffffffffffff1673ffffffffffffffffffffffffffffffffffffffff1681526020019081526020016000206000828152602001908152602001600020600001600081548092919061086d90610d84565b919050555043600260003373ffffffffffffffffffffffffffffffffffffffff1673ffffffffffffffffffffffffffffffffffffffff1681526020019081526020016000206000838152602001908152602001600020600101819055506001600082815260200190815260200160002060008154809291906108ee90610fc4565b91905055503360036000600454815260200190815260200160002060006101000a81548173ffffffffffffffffffffffffffffffffffffffff021916908373ffffffffffffffffffffffffffffffffffffffff1602179055506004600081548092919061095a90610d84565b919050555050565b60036020528060005260406000206000915054906101000a900473ffffffffffffffffffffffffffffffffffffffff1681565b600080fd5b6000819050919050565b6109ad8161099a565b81146109b857600080fd5b50565b6000813590506109ca816109a4565b92915050565b6000602082840312156109e6576109e5610995565b5b60006109f4848285016109bb565b91505092915050565b600073ffffffffffffffffffffffffffffffffffffffff82169050919050565b6000610a28826109fd565b9050919050565b610a3881610a1d565b8114610a4357600080fd5b50565b600081359050610a5581610a2f565b92915050565b60008060408385031215610a7257610a71610995565b5b6000610a8085828601610a46565b9250506020610a91858286016109bb565b9150509250929050565b610aa48161099a565b82525050565b6000604082019050610abf6000830185610a9b565b610acc6020830184610a9b565b9392505050565b6000602082019050610ae86000830184610a9b565b92915050565b60008060408385031215610b0557610b04610995565b5b6000610b13858286016109bb565b9250506020610b24858286016109bb565b9150509250929050565b600081519050919050565b600082825260208201905092915050565b6000819050602082019050919050565b610b6381610a1d565b82525050565b6000610b758383610b5a565b60208301905092915050565b6000602082019050919050565b6000610b9982610b2e565b610ba38185610b39565b9350610bae83610b4a565b8060005b83811015610bdf578151610bc68882610b69565b9750610bd183610b81565b925050600181019050610bb2565b5085935050505092915050565b60006020820190508181036000830152610c068184610b8e565b905092915050565b610c1781610a1d565b82525050565b6000602082019050610c326000830184610c0e565b92915050565b600082825260208201905092915050565b7f4e6f7420636c69656e7400000000000000000000000000000000000000000000600082015250565b6000610c7f600a83610c38565b9150610c8a82610c49565b602082019050919050565b60006020820190508181036000830152610cae81610c72565b9050919050565b7f4e6f206974656d7320746f2072657475726e0000000000000000000000000000600082015250565b6000610ceb601283610c38565b9150610cf682610cb5565b602082019050919050565b60006020820190508181036000830152610d1a81610cde565b9050919050565b7f4e487b7100000000000000000000000000000000000000000000000000000000600052601160045260246000fd5b6000610d5b8261099a565b9150610d668361099a565b925082821015610d7957610d78610d21565b5b828203905092915050565b6000610d8f8261099a565b91507fffffffffffffffffffffffffffffffffffffffffffffffffffffffffffffffff8203610dc157610dc0610d21565b5b600182019050919050565b7f4e6f74206f776e65720000000000000000000000000000000000000000000000600082015250565b6000610e02600983610c38565b9150610e0d82610dcc565b602082019050919050565b60006020820190508181036000830152610e3181610df5565b9050919050565b6000610e438261099a565b9150610e4e8361099a565b9250827fffffffffffffffffffffffffffffffffffffffffffffffffffffffffffffffff03821115610e8357610e82610d21565b5b828201905092915050565b7f4e487b7100000000000000000000000000000000000000000000000000000000600052604160045260246000fd5b7f4e487b7100000000000000000000000000000000000000000000000000000000600052603260045260246000fd5b7f436c69656e7420616c72656164792068617320746869732070726f6475637400600082015250565b6000610f22601f83610c38565b9150610f2d82610eec565b602082019050919050565b60006020820190508181036000830152610f5181610f15565b9050919050565b7f4e6f206974656d7320746f2073656c6c00000000000000000000000000000000600082015250565b6000610f8e601083610c38565b9150610f9982610f58565b602082019050919050565b60006020820190508181036000830152610fbd81610f81565b9050919050565b6000610fcf8261099a565b915060008203610fe257610fe1610d21565b5b60018203905091905056fea26469706673582212201ef73ee6890c8238b60d62ba4221eb43ccb7d838e6784b02b7b8469a351cb58464736f6c634300080d0033",
  "linkReferences": {},
  "deployedLinkReferences": {}
}