{
  "_format": "hh-sol-artifact-1",
  "contractName": "Shop",
  "sourceName": "contracts/Shop.sol",
  "abi": [
    {
      "inputs": [],
      "stateMutability": "nonpayable",
      "type": "constructor"
    },
    {
      "stateMutability": "payable",
      "type": "fallback"
    },
    {
      "inputs": [
        {
          "internalType": "uint256",
          "name": "_id",
          "type": "uint256"
        },
        {
          "internalType": "uint256",
          "name": "_quantity",
          "type": "uint256"
        }
      ],
      "name": "addItem",
      "outputs": [],
      "stateMutability": "nonpayable",
      "type": "function"
    },
    {
      "inputs": [
        {
          "internalType": "uint256",
          "name": "_id",
          "type": "uint256"
        }
      ],
      "name": "buyItem",
      "outputs": [],
      "stateMutability": "payable",
      "type": "function"
    },
    {
      "inputs": [
        {
          "internalType": "uint256",
          "name": "",
          "type": "uint256"
        }
      ],
      "name": "clients",
      "outputs": [
        {
          "internalType": "address",
          "name": "",
          "type": "address"
        }
      ],
      "stateMutability": "view",
      "type": "function"
    },
    {
      "inputs": [
        {
          "internalType": "uint256",
          "name": "",
          "type": "uint256"
        }
      ],
      "name": "items",
      "outputs": [
        {
          "internalType": "uint256",
          "name": "id",
          "type": "uint256"
        },
        {
          "internalType": "address",
          "name": "owner",
          "type": "address"
        },
        {
          "internalType": "uint256",
          "name": "timeOfPurchase",
          "type": "uint256"
        }
      ],
      "stateMutability": "view",
      "type": "function"
    },
    {
      "inputs": [],
      "name": "listClients",
      "outputs": [
        {
          "internalType": "address[]",
          "name": "",
          "type": "address[]"
        }
      ],
      "stateMutability": "view",
      "type": "function"
    },
    {
      "inputs": [],
      "name": "listItems",
      "outputs": [
        {
          "components": [
            {
              "internalType": "uint256",
              "name": "id",
              "type": "uint256"
            },
            {
              "internalType": "address",
              "name": "owner",
              "type": "address"
            },
            {
              "internalType": "uint256",
              "name": "timeOfPurchase",
              "type": "uint256"
            }
          ],
          "internalType": "struct Shop.Item[]",
          "name": "",
          "type": "tuple[]"
        }
      ],
      "stateMutability": "view",
      "type": "function"
    },
    {
      "inputs": [
        {
          "internalType": "uint256",
          "name": "_id",
          "type": "uint256"
        },
        {
          "internalType": "address payable",
          "name": "client",
          "type": "address"
        }
      ],
      "name": "returnItem",
      "outputs": [],
      "stateMutability": "payable",
      "type": "function"
    },
    {
      "stateMutability": "payable",
      "type": "receive"
    }
  ],
  "bytecode": "0x608060405234801561001057600080fd5b50336000806101000a81548173ffffffffffffffffffffffffffffffffffffffff021916908373ffffffffffffffffffffffffffffffffffffffff1602179055506111bd806100606000396000f3fe6080604052600436106100745760003560e01c8063bfb231d21161004e578063bfb231d2146100ed578063e20ee2691461012c578063e7fb74c714610157578063f88af21d146101735761007b565b80630ebc41761461007d578063355eefc814610099578063a2125232146100c45761007b565b3661007b57005b005b61009760048036038101906100929190610b95565b6101b0565b005b3480156100a557600080fd5b506100ae610476565b6040516100bb9190610cf6565b60405180910390f35b3480156100d057600080fd5b506100eb60048036038101906100e69190610d18565b61053f565b005b3480156100f957600080fd5b50610114600480360381019061010f9190610d58565b6106ca565b60405161012393929190610da3565b60405180910390f35b34801561013857600080fd5b50610141610724565b60405161014e9190610e89565b60405180910390f35b610171600480360381019061016c9190610d58565b6107b2565b005b34801561017f57600080fd5b5061019a60048036038101906101959190610d58565b610abd565b6040516101a79190610eab565b60405180910390f35b60008054906101000a900473ffffffffffffffffffffffffffffffffffffffff1673ffffffffffffffffffffffffffffffffffffffff163373ffffffffffffffffffffffffffffffffffffffff161461023e576040517f08c379a000000000000000000000000000000000000000000000000000000000815260040161023590610f49565b60405180910390fd5b8073ffffffffffffffffffffffffffffffffffffffff163460405161026290610f9a565b60006040518083038185875af1925050503d806000811461029f576040519150601f19603f3d011682016040523d82523d6000602084013e6102a4565b606091505b50505060005b6001805490508110156104705782600182815481106102cc576102cb610faf565b5b90600052602060002090600302016000015414801561035b57508173ffffffffffffffffffffffffffffffffffffffff166001828154811061031157610310610faf565b5b906000526020600020906003020160010160009054906101000a900473ffffffffffffffffffffffffffffffffffffffff1673ffffffffffffffffffffffffffffffffffffffff16145b80156103675750600047115b80156103a3575060646001828154811061038457610383610faf565b5b906000526020600020906003020160020154436103a1919061100d565b105b1561045d5760008054906101000a900473ffffffffffffffffffffffffffffffffffffffff16600182815481106103dd576103dc610faf565b5b906000526020600020906003020160010160006101000a81548173ffffffffffffffffffffffffffffffffffffffff021916908373ffffffffffffffffffffffffffffffffffffffff16021790555060006001828154811061044257610441610faf565b5b90600052602060002090600302016002018190555050610472565b808061046890611041565b9150506102aa565b505b5050565b60606001805480602002602001604051908101604052809291908181526020016000905b828210156105365783829060005260206000209060030201604051806060016040529081600082015481526020016001820160009054906101000a900473ffffffffffffffffffffffffffffffffffffffff1673ffffffffffffffffffffffffffffffffffffffff1673ffffffffffffffffffffffffffffffffffffffff1681526020016002820154815250508152602001906001019061049a565b50505050905090565b60008054906101000a900473ffffffffffffffffffffffffffffffffffffffff1673ffffffffffffffffffffffffffffffffffffffff163373ffffffffffffffffffffffffffffffffffffffff16146105cd576040517f08c379a00000000000000000000000000000000000000000000000000000000081526004016105c4906110fb565b60405180910390fd5b60005b818110156106c5576001604051806060016040528085815260200160008054906101000a900473ffffffffffffffffffffffffffffffffffffffff1673ffffffffffffffffffffffffffffffffffffffff168152602001600081525090806001815401808255809150506001900390600052602060002090600302016000909190919091506000820151816000015560208201518160010160006101000a81548173ffffffffffffffffffffffffffffffffffffffff021916908373ffffffffffffffffffffffffffffffffffffffff16021790555060408201518160020155505080806106bd90611041565b9150506105d0565b505050565b600181815481106106da57600080fd5b90600052602060002090600302016000915090508060000154908060010160009054906101000a900473ffffffffffffffffffffffffffffffffffffffff16908060020154905083565b606060028054806020026020016040519081016040528092919081815260200182805480156107a857602002820191906000526020600020905b8160009054906101000a900473ffffffffffffffffffffffffffffffffffffffff1673ffffffffffffffffffffffffffffffffffffffff168152602001906001019080831161075e575b5050505050905090565b60008054906101000a900473ffffffffffffffffffffffffffffffffffffffff1673ffffffffffffffffffffffffffffffffffffffff163373ffffffffffffffffffffffffffffffffffffffff1603610840576040517f08c379a000000000000000000000000000000000000000000000000000000000815260040161083790611167565b60405180910390fd5b60008054906101000a900473ffffffffffffffffffffffffffffffffffffffff1673ffffffffffffffffffffffffffffffffffffffff163460405161088490610f9a565b60006040518083038185875af1925050503d80600081146108c1576040519150601f19603f3d011682016040523d82523d6000602084013e6108c6565b606091505b50505060005b600180549050811015610ab85781600182815481106108ee576108ed610faf565b5b90600052602060002090600302016000015414801561099d575060008054906101000a900473ffffffffffffffffffffffffffffffffffffffff1673ffffffffffffffffffffffffffffffffffffffff166001828154811061095357610952610faf565b5b906000526020600020906003020160010160009054906101000a900473ffffffffffffffffffffffffffffffffffffffff1673ffffffffffffffffffffffffffffffffffffffff16145b80156109a95750600047115b15610aa55733600182815481106109c3576109c2610faf565b5b906000526020600020906003020160010160006101000a81548173ffffffffffffffffffffffffffffffffffffffff021916908373ffffffffffffffffffffffffffffffffffffffff1602179055504360018281548110610a2757610a26610faf565b5b9060005260206000209060030201600201819055506002339080600181540180825580915050600190039060005260206000200160009091909190916101000a81548173ffffffffffffffffffffffffffffffffffffffff021916908373ffffffffffffffffffffffffffffffffffffffff16021790555050610aba565b8080610ab090611041565b9150506108cc565b505b50565b60028181548110610acd57600080fd5b906000526020600020016000915054906101000a900473ffffffffffffffffffffffffffffffffffffffff1681565b600080fd5b6000819050919050565b610b1481610b01565b8114610b1f57600080fd5b50565b600081359050610b3181610b0b565b92915050565b600073ffffffffffffffffffffffffffffffffffffffff82169050919050565b6000610b6282610b37565b9050919050565b610b7281610b57565b8114610b7d57600080fd5b50565b600081359050610b8f81610b69565b92915050565b60008060408385031215610bac57610bab610afc565b5b6000610bba85828601610b22565b9250506020610bcb85828601610b80565b9150509250929050565b600081519050919050565b600082825260208201905092915050565b6000819050602082019050919050565b610c0a81610b01565b82525050565b6000610c1b82610b37565b9050919050565b610c2b81610c10565b82525050565b606082016000820151610c476000850182610c01565b506020820151610c5a6020850182610c22565b506040820151610c6d6040850182610c01565b50505050565b6000610c7f8383610c31565b60608301905092915050565b6000602082019050919050565b6000610ca382610bd5565b610cad8185610be0565b9350610cb883610bf1565b8060005b83811015610ce9578151610cd08882610c73565b9750610cdb83610c8b565b925050600181019050610cbc565b5085935050505092915050565b60006020820190508181036000830152610d108184610c98565b905092915050565b60008060408385031215610d2f57610d2e610afc565b5b6000610d3d85828601610b22565b9250506020610d4e85828601610b22565b9150509250929050565b600060208284031215610d6e57610d6d610afc565b5b6000610d7c84828501610b22565b91505092915050565b610d8e81610b01565b82525050565b610d9d81610c10565b82525050565b6000606082019050610db86000830186610d85565b610dc56020830185610d94565b610dd26040830184610d85565b949350505050565b600081519050919050565b600082825260208201905092915050565b6000819050602082019050919050565b6000610e128383610c22565b60208301905092915050565b6000602082019050919050565b6000610e3682610dda565b610e408185610de5565b9350610e4b83610df6565b8060005b83811015610e7c578151610e638882610e06565b9750610e6e83610e1e565b925050600181019050610e4f565b5085935050505092915050565b60006020820190508181036000830152610ea38184610e2b565b905092915050565b6000602082019050610ec06000830184610d94565b92915050565b600082825260208201905092915050565b7f596f752063616e2774206a757374206f7065726174652077697468207468652060008201527f73686f70206f776e65722773206d6f6e65792e00000000000000000000000000602082015250565b6000610f33603383610ec6565b9150610f3e82610ed7565b604082019050919050565b60006020820190508181036000830152610f6281610f26565b9050919050565b600081905092915050565b50565b6000610f84600083610f69565b9150610f8f82610f74565b600082019050919050565b6000610fa582610f77565b9150819050919050565b7f4e487b7100000000000000000000000000000000000000000000000000000000600052603260045260246000fd5b7f4e487b7100000000000000000000000000000000000000000000000000000000600052601160045260246000fd5b600061101882610b01565b915061102383610b01565b92508282101561103657611035610fde565b5b828203905092915050565b600061104c82610b01565b91507fffffffffffffffffffffffffffffffffffffffffffffffffffffffffffffffff820361107e5761107d610fde565b5b600182019050919050565b7f43616e6e6f7420616464206974656d2e20596f7520617265206e6f742074686560008201527f206f776e65722e00000000000000000000000000000000000000000000000000602082015250565b60006110e5602783610ec6565b91506110f082611089565b604082019050919050565b60006020820190508181036000830152611114816110d8565b9050919050565b7f596f752063616e27742062757920796f7572206f776e2073746f636b2e000000600082015250565b6000611151601d83610ec6565b915061115c8261111b565b602082019050919050565b6000602082019050818103600083015261118081611144565b905091905056fea26469706673582212200c41cfc56ce24991dde2b55b577eb404348548d40741538c4d5db49f7460302664736f6c634300080d0033",
  "linkReferences": {},
  "deployedLinkReferences": {}
}